:10A00000000C0020E1A10000C9A00000E1A40000B4
:10A010000000000000000000000000000000000040
:10A02000000000000000000000000000CDA00000C3
:10A030000000000000000000CFA00000D1A0000040
:10A04000D5A00000DDA00000E5A00000EDA000000C
:10A05000F5A00000FDA0000005A100000DA100007A
:10A0600015A100001DA1000025A100002DA10000E8
:10A0700035A100003DA1000045A100004DA1000058
:10A0800055A100005DA1000065A100006DA10000C8
:10A0900075A100007DA1000085A100008DA1000038
:10A0A00095A100009DA10000A5A10000ADA10000A8
:10A0B000B5A10000C0AB000000FCFF1F04000000C1
:10A0C00004FCFF1FB8000000FEE7FEE7FEE7FEE726
:10A0D000FEE7FEE710B5FFF7FCFF10BD10B5FFF778
:10A0E000F8FF10BD10B5FFF7F4FF10BD10B5FFF776
:10A0F000F0FF10BD10B5FFF7ECFF10BD10B5FFF776
:10A10000E8FF10BD10B5FFF7E4FF10BD10B5FFF775
:10A11000E0FF10BD10B5FFF7DCFF10BD10B5FFF775
:10A12000D8FF10BD10B5FFF7D4FF10BD10B5FFF775
:10A13000D0FF10BD10B5FFF7CCFF10BD10B5FFF775
:10A14000C8FF10BD10B5FFF7C4FF10BD10B5FFF775
:10A15000C0FF10BD10B5FFF7BCFF10BD10B5FFF775
:10A16000B8FF10BD10B5FFF7B4FF10BD10B5FFF775
:10A17000B0FF10BD10B5FFF7ACFF10BD10B5FFF775
:10A18000A8FF10BD10B5FFF7A4FF10BD10B5FFF775
:10A19000A0FF10BD10B5FFF79CFF10BD10B5FFF775
:10A1A00098FF10BD10B5FFF794FF10BD10B5FFF775
:10A1B00090FF10BD10B5FFF78CFF10BD002310B548
:10A1C000934200D310BD1C585C500433F8E70023C1
:10A1D0001A008B4200D370471A500433F9E7FFFF8F
:10A1E00010B572B600F098F90B4B0C4A1C00934264
:10A1F00006D30B4B9C4209D362B600F0DFF9FEE7B1
:10A2000007CB0C34FFF7DAFF2300EEE76168206824
:10A21000FFF7DDFF0834ECE7B4A00000C0A00000A9
:10A22000C8A00000FFFFFFFFFFFFFFFFFFFFFFFFD2
:10A23000FFFFFFFFFFFFFFFFFFFFFFFFFFFFFFFF2E
:10A24000FFFFFFFFFFFFFFFFFFFFFFFFFFFFFFFF1E
:10A25000FFFFFFFFFFFFFFFFFFFFFFFFFFFFFFFF0E
:10A26000FFFFFFFFFFFFFFFFFFFFFFFFFFFFFFFFFE
:10A27000FFFFFFFFFFFFFFFFFFFFFFFFFFFFFFFFEE
:10A28000FFFFFFFFFFFFFFFFFFFFFFFFFFFFFFFFDE
:10A29000FFFFFFFFFFFFFFFFFFFFFFFFFFFFFFFFCE
:10A2A000FFFFFFFFFFFFFFFFFFFFFFFFFFFFFFFFBE
:10A2B000FFFFFFFFFFFFFFFFFFFFFFFFFFFFFFFFAE
:10A2C000FFFFFFFFFFFFFFFFFFFFFFFFFFFFFFFF9E
:10A2D000FFFFFFFFFFFFFFFFFFFFFFFFFFFFFFFF8E
:10A2E000FFFFFFFFFFFFFFFFFFFFFFFFFFFFFFFF7E
:10A2F000FFFFFFFFFFFFFFFFFFFFFFFFFFFFFFFF6E
:10A30000FFFFFFFFFFFFFFFFFFFFFFFFFFFFFFFF5D
:10A31000FFFFFFFFFFFFFFFFFFFFFFFFFFFFFFFF4D
:10A32000FFFFFFFFFFFFFFFFFFFFFFFFFFFFFFFF3D
:10A33000FFFFFFFFFFFFFFFFFFFFFFFFFFFFFFFF2D
:10A34000FFFFFFFFFFFFFFFFFFFFFFFFFFFFFFFF1D
:10A35000FFFFFFFFFFFFFFFFFFFFFFFFFFFFFFFF0D
:10A36000FFFFFFFFFFFFFFFFFFFFFFFFFFFFFFFFFD
:10A37000FFFFFFFFFFFFFFFFFFFFFFFFFFFFFFFFED
:10A38000FFFFFFFFFFFFFFFFFFFFFFFFFFFFFFFFDD
:10A39000FFFFFFFFFFFFFFFFFFFFFFFFFFFFFFFFCD
:10A3A000FFFFFFFFFFFFFFFFFFFFFFFFFFFFFFFFBD
:10A3B000FFFFFFFFFFFFFFFFFFFFFFFFFFFFFFFFAD
:10A3C000FFFFFFFFFFFFFFFFFFFFFFFFFFFFFFFF9D
:10A3D000FFFFFFFFFFFFFFFFFFFFFFFFFFFFFFFF8D
:10A3E000FFFFFFFFFFFFFFFFFFFFFFFFFFFFFFFF7D
:10A3F000FFFFFFFFFFFFFFFFFFFFFFFFFFFFFFFF6D
:10A40000FFFFFFFFFFFFFFFFFFFFFFFFFFFFFEFF5D
:10A410000022074982B0013801D202B07047019290
:10A42000019B8B42F7DC019B01330193F8E7C046A7
:10A43000E7030000C223094A1B0351690B43536120
:10A440000223074A51699943516191699943916186
:10A45000044A91680B4393607047C04600F00F4078
:10A4600040F00F4000900440C222024B12035A6099
:10A470007047C04600F00F40C222024B12039A60A0
:10A480007047C04600F00F40024B18690223184085
:10A490007047C04640F00F40F8B58026FA2500F01E
:10A4A0003AF800F033F800F035F8FFF7C3FFB601D3
:10A4B0006D008027094CFF02A66028006760FFF747
:10A4C000A7FFA76080273F0328006760FFF7A0FF72
:10A4D000A76028006660FFF79BFFEAE700F00F40E7
:10A4E00004207146084202D0EFF3098001E0EFF347
:10A4F000088081690A88044B9A4200D0FEE7023145
:10A500008161202070470000ABBE000010B500F054
:10A510001BF810BD70477047084B094A5F215A80ED
:10A52000084A5A80012252429A801A781140202209
:10A530000A431A705A78D2B25A7070470020054008
:10A54000C5200000D9280000012070B50400174A7A
:10A5500053785B099C4013789B0983421FD0002BE2
:10A5600008D0022B05D11248210000F0ACFA114BA3
:10A57000186070BD042513782B4213D111780E4B4F
:10A5800089061A78490F013120232A4200D103009D
:10A590005943074889B200F096FA8002E4E7802028
:10A5A0000002E1E780208004DEE7C046004006406C
:10A5B0008096980000FCFF1F0050064010B500F088
:10A5C00003F8FFF769FF10BD37B5184C1849220092
:10A5D000002000F05BF8802380225B00D200002185
:10A5E000200000F02FF8134C134D22002900012009
:10A5F00000F04CF8802380225B00D2000021200074
:10A6000000F020F80D4B1B680193022B0DDD0C4C64
:10A6100029002200022000F039F8802380225B000C
:10A62000D2000021200000F00DF837BD08FCFF1F0C
:10A63000B8AB000044FCFF1FBAAB0000BCAB00008D
:10A6400080FCFF1FF0B5C5680124AE0710D080263E
:10A65000B600B24207D08026F600B2420AD0802669
:10A660007600B24204D1084F5E1E0124BE4204D9D6
:10A670002000F0BD01002300243115430161016079
:10A68000C361C5600024F3E7FEFFFF00F7B50D00CE
:10A6900001901000140000F033F82B78722B1FD0BB
:10A6A000772B04D0612B26D10823144A01E0042320
:10A6B00002220220691C032784460426012508780B
:10A6C0002B2810D0622813D0E260019A62611B0728
:10A6D00004D502220021200000F062F82000FEBD17
:10A6E00000230122E5E760463A4303430131E6E7F0
:10A6F00032432B43FAE70024F0E7C0460280000013
:10A70000F0B5C46889B00500A30722D0230718D488
:10A710004769066900F022F8380000F023FA2305A3
:10A7200002D5300000F096F90B4BA40DA4059C4215
:10A7300007D12022296A684600F032FA684600F004
:10A74000CBF83C220021280000F0FCF8002009B0E2
:10A75000F0BD01204042FAE7000080AD73B500284B
:10A7600014D1040005003C260B4B1B680193019B90
:10A770009C420EDA30006043084BC01800F0E6F847
:10A78000002801D001256D420134F0E700F0DEF829
:10A790000500280076BDC046BCAB000008FCFF1FCA
:10A7A000F7B5394BC56804000E0000921D4201D177
:10A7B000022741E043691800019300F0DFF9071E0A
:10A7C000F6D1009B012B28D0022B2BD0002BEFD1F0
:10A7D000002EEDDBAB0404D52368E26A9A4200D276
:10A7E000E362A06986420EDBE26A2368934200D2EC
:10A7F0001300226919180092891A8E4203DC216B1A
:10A80000421896422EDB20231D430023A662A3603C
:10A8100063601E4B1D40E5600EE0200000F038F83C
:10A820003618D5E7019800F0A3F9E268002805DAA8
:10A83000802301271343E3603800FEBDE16A2368EB
:10A84000994200D90B00A1695B1821695B1A920635
:10A8500003D5A26A934200DA1300834200DA0300B0
:10A86000F618B5E7361AAA0701D5711AA160EA07EA
:10A8700003D5009A9B1AF31A6360009B9E1920234C
:10A8800026609D43C5E7C04603001000BFCFF7FF19
:10A89000C3689A0705D1212201200E4B40421A605D
:10A8A0007047202219030AD5134202D0806A01386A
:10A8B000F6E70368826900699B18181AF7E71342E4
:10A8C00001D0806AECE70368826900699B18181A56
:10A8D000E6E7C04604FCFF1F10B5040000F006F8D0
:10A8E0000100200000F050F910BDFFFF032110B55A
:10A8F000421C084218D1114C036811495918994358
:10A90000214219D0DCB2411C002C0BD0FF242402C0
:10A91000811C234206D0FF2109040B40591E8B41A4
:10A92000C318D91C881A04E0431C0078002801D100
:10A93000981A10BD1800DCE70430DDE780808080C5
:10A94000FFFEFEFE10B500F0F8F810BD70B503264E
:10A95000C36804001E4011D09B0611D5856A00F023
:10A960008FF8E268094B20001340E36000F010F814
:10A970000022060029002000FFF712FF300070BD02
:10A98000036882699D180369ED1AEAE7FFCFFFFFAC
:10A9900070B5040005690168C26A124BC0680340C3
:10A9A000E36082230340022B02D00120404270BDAD
:10A9B00080235B021840FAD0914200D211008D42F0
:10A9C00008D10020E268084BE56213402560A060D2
:10A9D000E360ECE7491B2200280000F007F800289C
:10A9E000EFD0E2E7FFFFF7FFFFFFFEFFF7B5D56807
:10A9F00001900E0014005769EB0205D510233800B2
:10AA00001D4300F0B5F8A061104B1D420FD0A169A5
:10AA1000380000F0BFF8002806DA80230120E26841
:10AA200040421343E3600FE0094B1D40E5603200F4
:10AA30000199380000F0BAF843005B08F61AA369E0
:10AA40009E19A6610028E8D1FEBDC0461000020094
:10AA5000EFFFFDFF10B5002811D080210C3849050B
:10AA600001608268002A0AD013688B4207D14368CC
:10AA7000546803331B19436093688360F1E710BD8A
:10AA8000202310B50400C2689A43E2608369826A99
:10AA900093420CD0FFF77CFFE368074A1A4010236B
:10AAA0001343E360A36AA3612369E3622360E2685E
:10AAB000024B1340E36010BDEFCFFFFFBFBFFFFFAE
:10AAC00003000B4321D4002931D00122D20703090E
:10AAD00001E0090112099942FBD9430801E049004C
:10AAE00052089942FBD900E04908401A07D3524165
:10AAF000FAD301461046704749084018F7D2921819
:10AB0000FAD34018014610467047CB0F00D0494297
:10AB1000021000D54042534008B5FFF7D4FF0CBCEB
:10AB2000521000D34042002A00D549421847F4464B
:10AB3000002000F001F8604770478446043A09D3CA
:10AB4000830707D109060B0A19430B0C1943043A72
:10AB500002C0FCD2043203D001700130013AFBD1B3
:10AB60006046704703B469460220ABBE02B070472E
:10AB700003B469460C20ABBE02B0704703B469460B
:10AB80000920ABBE02B0704703B469460E20ABBECD
:10AB900002B0704703B469460A20ABBE02B07047EA
:10ABA0000FB469460D20ABBE04B070470FB46946C0
:10ABB0000520ABBE04B070477200770003000000B0
:04ABC000005A6202D3
:040000030000A1E177
:00000001FF
